{
  "_format": "hh-sol-artifact-1",
  "contractName": "SoulBoundToken",
  "sourceName": "contracts/SoulBoundToken.sol",
  "abi": [
    {
      "inputs": [],
      "stateMutability": "nonpayable",
      "type": "constructor"
    },
    {
      "inputs": [
        {
          "internalType": "address",
          "name": "sender",
          "type": "address"
        },
        {
          "internalType": "uint256",
          "name": "tokenId",
          "type": "uint256"
        },
        {
          "internalType": "address",
          "name": "owner",
          "type": "address"
        }
      ],
      "name": "ERC721IncorrectOwner",
      "type": "error"
    },
    {
      "inputs": [
        {
          "internalType": "address",
          "name": "operator",
          "type": "address"
        },
        {
          "internalType": "uint256",
          "name": "tokenId",
          "type": "uint256"
        }
      ],
      "name": "ERC721InsufficientApproval",
      "type": "error"
    },
    {
      "inputs": [
        {
          "internalType": "address",
          "name": "approver",
          "type": "address"
        }
      ],
      "name": "ERC721InvalidApprover",
      "type": "error"
    },
    {
      "inputs": [
        {
          "internalType": "address",
          "name": "operator",
          "type": "address"
        }
      ],
      "name": "ERC721InvalidOperator",
      "type": "error"
    },
    {
      "inputs": [
        {
          "internalType": "address",
          "name": "owner",
          "type": "address"
        }
      ],
      "name": "ERC721InvalidOwner",
      "type": "error"
    },
    {
      "inputs": [
        {
          "internalType": "address",
          "name": "receiver",
          "type": "address"
        }
      ],
      "name": "ERC721InvalidReceiver",
      "type": "error"
    },
    {
      "inputs": [
        {
          "internalType": "address",
          "name": "sender",
          "type": "address"
        }
      ],
      "name": "ERC721InvalidSender",
      "type": "error"
    },
    {
      "inputs": [
        {
          "internalType": "uint256",
          "name": "tokenId",
          "type": "uint256"
        }
      ],
      "name": "ERC721NonexistentToken",
      "type": "error"
    },
    {
      "inputs": [
        {
          "internalType": "address",
          "name": "owner",
          "type": "address"
        }
      ],
      "name": "OwnableInvalidOwner",
      "type": "error"
    },
    {
      "inputs": [
        {
          "internalType": "address",
          "name": "account",
          "type": "address"
        }
      ],
      "name": "OwnableUnauthorizedAccount",
      "type": "error"
    },
    {
      "anonymous": false,
      "inputs": [
        {
          "indexed": true,
          "internalType": "address",
          "name": "owner",
          "type": "address"
        },
        {
          "indexed": true,
          "internalType": "address",
          "name": "approved",
          "type": "address"
        },
        {
          "indexed": true,
          "internalType": "uint256",
          "name": "tokenId",
          "type": "uint256"
        }
      ],
      "name": "Approval",
      "type": "event"
    },
    {
      "anonymous": false,
      "inputs": [
        {
          "indexed": true,
          "internalType": "address",
          "name": "owner",
          "type": "address"
        },
        {
          "indexed": true,
          "internalType": "address",
          "name": "operator",
          "type": "address"
        },
        {
          "indexed": false,
          "internalType": "bool",
          "name": "approved",
          "type": "bool"
        }
      ],
      "name": "ApprovalForAll",
      "type": "event"
    },
    {
      "anonymous": false,
      "inputs": [
        {
          "indexed": true,
          "internalType": "address",
          "name": "recipient",
          "type": "address"
        },
        {
          "indexed": true,
          "internalType": "uint256",
          "name": "tokenId",
          "type": "uint256"
        },
        {
          "indexed": false,
          "internalType": "string",
          "name": "badgeType",
          "type": "string"
        }
      ],
      "name": "BadgeMinted",
      "type": "event"
    },
    {
      "anonymous": false,
      "inputs": [
        {
          "indexed": true,
          "internalType": "address",
          "name": "previousOwner",
          "type": "address"
        },
        {
          "indexed": true,
          "internalType": "address",
          "name": "newOwner",
          "type": "address"
        }
      ],
      "name": "OwnershipTransferred",
      "type": "event"
    },
    {
      "anonymous": false,
      "inputs": [
        {
          "indexed": true,
          "internalType": "address",
          "name": "from",
          "type": "address"
        },
        {
          "indexed": true,
          "internalType": "address",
          "name": "to",
          "type": "address"
        },
        {
          "indexed": true,
          "internalType": "uint256",
          "name": "tokenId",
          "type": "uint256"
        }
      ],
      "name": "Transfer",
      "type": "event"
    },
    {
      "inputs": [
        {
          "internalType": "address",
          "name": "to",
          "type": "address"
        },
        {
          "internalType": "uint256",
          "name": "tokenId",
          "type": "uint256"
        }
      ],
      "name": "approve",
      "outputs": [],
      "stateMutability": "nonpayable",
      "type": "function"
    },
    {
      "inputs": [
        {
          "internalType": "address",
          "name": "owner",
          "type": "address"
        }
      ],
      "name": "balanceOf",
      "outputs": [
        {
          "internalType": "uint256",
          "name": "",
          "type": "uint256"
        }
      ],
      "stateMutability": "view",
      "type": "function"
    },
    {
      "inputs": [
        {
          "internalType": "uint256",
          "name": "tokenId",
          "type": "uint256"
        }
      ],
      "name": "getApproved",
      "outputs": [
        {
          "internalType": "address",
          "name": "",
          "type": "address"
        }
      ],
      "stateMutability": "view",
      "type": "function"
    },
    {
      "inputs": [
        {
          "internalType": "address",
          "name": "owner",
          "type": "address"
        },
        {
          "internalType": "address",
          "name": "operator",
          "type": "address"
        }
      ],
      "name": "isApprovedForAll",
      "outputs": [
        {
          "internalType": "bool",
          "name": "",
          "type": "bool"
        }
      ],
      "stateMutability": "view",
      "type": "function"
    },
    {
      "inputs": [
        {
          "internalType": "address",
          "name": "recipient",
          "type": "address"
        },
        {
          "internalType": "string",
          "name": "badgeType",
          "type": "string"
        },
        {
          "internalType": "string",
          "name": "uri",
          "type": "string"
        }
      ],
      "name": "mintBadge",
      "outputs": [
        {
          "internalType": "uint256",
          "name": "",
          "type": "uint256"
        }
      ],
      "stateMutability": "nonpayable",
      "type": "function"
    },
    {
      "inputs": [],
      "name": "name",
      "outputs": [
        {
          "internalType": "string",
          "name": "",
          "type": "string"
        }
      ],
      "stateMutability": "view",
      "type": "function"
    },
    {
      "inputs": [],
      "name": "owner",
      "outputs": [
        {
          "internalType": "address",
          "name": "",
          "type": "address"
        }
      ],
      "stateMutability": "view",
      "type": "function"
    },
    {
      "inputs": [
        {
          "internalType": "uint256",
          "name": "tokenId",
          "type": "uint256"
        }
      ],
      "name": "ownerOf",
      "outputs": [
        {
          "internalType": "address",
          "name": "",
          "type": "address"
        }
      ],
      "stateMutability": "view",
      "type": "function"
    },
    {
      "inputs": [],
      "name": "renounceOwnership",
      "outputs": [],
      "stateMutability": "nonpayable",
      "type": "function"
    },
    {
      "inputs": [
        {
          "internalType": "address",
          "name": "from",
          "type": "address"
        },
        {
          "internalType": "address",
          "name": "to",
          "type": "address"
        },
        {
          "internalType": "uint256",
          "name": "tokenId",
          "type": "uint256"
        }
      ],
      "name": "safeTransferFrom",
      "outputs": [],
      "stateMutability": "nonpayable",
      "type": "function"
    },
    {
      "inputs": [
        {
          "internalType": "address",
          "name": "from",
          "type": "address"
        },
        {
          "internalType": "address",
          "name": "to",
          "type": "address"
        },
        {
          "internalType": "uint256",
          "name": "tokenId",
          "type": "uint256"
        },
        {
          "internalType": "bytes",
          "name": "data",
          "type": "bytes"
        }
      ],
      "name": "safeTransferFrom",
      "outputs": [],
      "stateMutability": "nonpayable",
      "type": "function"
    },
    {
      "inputs": [
        {
          "internalType": "address",
          "name": "operator",
          "type": "address"
        },
        {
          "internalType": "bool",
          "name": "approved",
          "type": "bool"
        }
      ],
      "name": "setApprovalForAll",
      "outputs": [],
      "stateMutability": "nonpayable",
      "type": "function"
    },
    {
      "inputs": [
        {
          "internalType": "bytes4",
          "name": "interfaceId",
          "type": "bytes4"
        }
      ],
      "name": "supportsInterface",
      "outputs": [
        {
          "internalType": "bool",
          "name": "",
          "type": "bool"
        }
      ],
      "stateMutability": "view",
      "type": "function"
    },
    {
      "inputs": [],
      "name": "symbol",
      "outputs": [
        {
          "internalType": "string",
          "name": "",
          "type": "string"
        }
      ],
      "stateMutability": "view",
      "type": "function"
    },
    {
      "inputs": [
        {
          "internalType": "uint256",
          "name": "tokenId",
          "type": "uint256"
        }
      ],
      "name": "tokenURI",
      "outputs": [
        {
          "internalType": "string",
          "name": "",
          "type": "string"
        }
      ],
      "stateMutability": "view",
      "type": "function"
    },
    {
      "inputs": [
        {
          "internalType": "address",
          "name": "from",
          "type": "address"
        },
        {
          "internalType": "address",
          "name": "to",
          "type": "address"
        },
        {
          "internalType": "uint256",
          "name": "tokenId",
          "type": "uint256"
        }
      ],
      "name": "transferFrom",
      "outputs": [],
      "stateMutability": "nonpayable",
      "type": "function"
    },
    {
      "inputs": [
        {
          "internalType": "address",
          "name": "newOwner",
          "type": "address"
        }
      ],
      "name": "transferOwnership",
      "outputs": [],
      "stateMutability": "nonpayable",
      "type": "function"
    }
  ],
  "bytecode": "0x608060405234801562000010575f80fd5b50336040518060400160405280600f81526020016e53636f757452656e6120426164676560881b8152506040518060400160405280600381526020016229a92160e91b815250815f9081620000669190620001a7565b506001620000758282620001a7565b5050506001600160a01b038116620000a657604051631e4fbdf760e01b81525f600482015260240160405180910390fd5b620000b181620000b8565b5062000273565b600680546001600160a01b038381166001600160a01b0319831681179093556040519116919082907f8be0079c531659141344cd1fd0a4f28419497f9722a3daafe3b4186f6b6457e0905f90a35050565b634e487b7160e01b5f52604160045260245ffd5b600181811c908216806200013257607f821691505b6020821081036200015157634e487b7160e01b5f52602260045260245ffd5b50919050565b601f821115620001a257805f5260205f20601f840160051c810160208510156200017e5750805b601f840160051c820191505b818110156200019f575f81556001016200018a565b50505b505050565b81516001600160401b03811115620001c357620001c362000109565b620001db81620001d484546200011d565b8462000157565b602080601f83116001811462000211575f8415620001f95750858301515b5f19600386901b1c1916600185901b1785556200026b565b5f85815260208120601f198616915b82811015620002415788860151825594840194600190910190840162000220565b50858210156200025f57878501515f19600388901b60f8161c191681555b505060018460011b0185555b505050505050565b61115c80620002815f395ff3fe608060405234801561000f575f80fd5b5060043610610106575f3560e01c806370a082311161009e578063a22cb4651161006e578063a22cb46514610215578063b88d4fde14610228578063c87b56dd14610236578063e985e9c514610249578063f2fde38b1461025c575f80fd5b806370a08231146101e1578063715018a6146101f45780638da5cb5b146101fc57806395d89b411461020d575f80fd5b806323b872dd116100d957806323b872dd1461018757806342842e0e1461019a578063587c753d146101ad5780636352211e146101ce575f80fd5b806301ffc9a71461010a57806306fdde0314610132578063081812fc14610147578063095ea7b314610172575b5f80fd5b61011d610118366004610c5b565b61026f565b60405190151581526020015b60405180910390f35b61013a6102c0565b6040516101299190610cc0565b61015a610155366004610cd2565b61034f565b6040516001600160a01b039091168152602001610129565b610185610180366004610d04565b610376565b005b610185610195366004610d2c565b610385565b6101856101a8366004610d2c565b61040e565b6101c06101bb366004610e0a565b61042d565b604051908152602001610129565b61015a6101dc366004610cd2565b6104b8565b6101c06101ef366004610e79565b6104c2565b610185610507565b6006546001600160a01b031661015a565b61013a61051a565b610185610223366004610e92565b610529565b610185610195366004610ecb565b61013a610244366004610cd2565b610534565b61011d610257366004610f42565b6105db565b61018561026a366004610e79565b610608565b5f6001600160e01b031982166380ac58cd60e01b148061029f57506001600160e01b03198216635b5e139f60e01b145b806102ba57506301ffc9a760e01b6001600160e01b03198316145b92915050565b60605f80546102ce90610f73565b80601f01602080910402602001604051908101604052809291908181526020018280546102fa90610f73565b80156103455780601f1061031c57610100808354040283529160200191610345565b820191905f5260205f20905b81548152906001019060200180831161032857829003601f168201915b5050505050905090565b5f61035982610645565b505f828152600460205260409020546001600160a01b03166102ba565b61038182823361067d565b5050565b60405162461bcd60e51b815260206004820152604d60248201527f536f756c426f756e64546f6b656e3a205472616e73666572732061726520626c60448201527f6f636b65642e2054686973206261646765206973206c696e6b656420746f207960648201526c37bab91034b232b73a34ba3c9760991b608482015260a4015b60405180910390fd5b61042883838360405180602001604052805f815250610385565b505050565b5f61043661068a565b600780545f918261044683610fab565b91905055905061045685826106b7565b5f81815260086020526040902061046d8482611013565b5080856001600160a01b03167f6854c057dc92416510857b3daad5434a4202a4d192cf0f85d496d91974efaea3866040516104a89190610cc0565b60405180910390a3949350505050565b5f6102ba82610645565b5f6001600160a01b0382166104ec576040516322718ad960e21b81525f6004820152602401610405565b506001600160a01b03165f9081526003602052604090205490565b61050f61068a565b6105185f6106d0565b565b6060600180546102ce90610f73565b610381338383610721565b606061053f82610645565b505f828152600860205260409020805461055890610f73565b80601f016020809104026020016040519081016040528092919081815260200182805461058490610f73565b80156105cf5780601f106105a6576101008083540402835291602001916105cf565b820191905f5260205f20905b8154815290600101906020018083116105b257829003601f168201915b50505050509050919050565b6001600160a01b039182165f90815260056020908152604080832093909416825291909152205460ff1690565b61061061068a565b6001600160a01b03811661063957604051631e4fbdf760e01b81525f6004820152602401610405565b610642816106d0565b50565b5f818152600260205260408120546001600160a01b0316806102ba57604051637e27328960e01b815260048101849052602401610405565b61042883838360016107e8565b6006546001600160a01b031633146105185760405163118cdaa760e01b8152336004820152602401610405565b610381828260405180602001604052805f8152506108ec565b600680546001600160a01b038381166001600160a01b0319831681179093556040519116919082907f8be0079c531659141344cd1fd0a4f28419497f9722a3daafe3b4186f6b6457e0905f90a35050565b6001600160a01b03831661074a5760405163a9fbf51f60e01b81525f6004820152602401610405565b6001600160a01b03821661077c57604051630b61174360e31b81526001600160a01b0383166004820152602401610405565b6001600160a01b038381165f81815260056020908152604080832094871680845294825291829020805460ff191686151590811790915591519182527f17307eab39ab6107e8899845ad3d59bd9653f200f220920489ca2b5937696c31910160405180910390a3505050565b80806107fc57506001600160a01b03821615155b156108bd575f61080b84610645565b90506001600160a01b038316158015906108375750826001600160a01b0316816001600160a01b031614155b801561084a575061084881846105db565b155b156108735760405163a9fbf51f60e01b81526001600160a01b0384166004820152602401610405565b81156108bb5783856001600160a01b0316826001600160a01b03167f8c5be1e5ebec7d5bd14f71427d1e84f3dd0314c0f7b2291e5b200ac8c7c3b92560405160405180910390a45b505b50505f90815260046020526040902080546001600160a01b0319166001600160a01b0392909216919091179055565b6108f68383610903565b610428335f858585610964565b6001600160a01b03821661092c57604051633250574960e11b81525f6004820152602401610405565b5f61093883835f610a8c565b90506001600160a01b03811615610428576040516339e3563760e11b81525f6004820152602401610405565b6001600160a01b0383163b15610a8557604051630a85bd0160e11b81526001600160a01b0384169063150b7a02906109a69088908890879087906004016110cf565b6020604051808303815f875af19250505080156109e0575060408051601f3d908101601f191682019092526109dd9181019061110b565b60015b610a47573d808015610a0d576040519150601f19603f3d011682016040523d82523d5f602084013e610a12565b606091505b5080515f03610a3f57604051633250574960e11b81526001600160a01b0385166004820152602401610405565b805160208201fd5b6001600160e01b03198116630a85bd0160e11b14610a8357604051633250574960e11b81526001600160a01b0385166004820152602401610405565b505b5050505050565b5f828152600260205260408120546001600160a01b0390811690831615610ab857610ab8818486610b7e565b6001600160a01b03811615610af257610ad35f855f806107e8565b6001600160a01b0381165f90815260036020526040902080545f190190555b6001600160a01b03851615610b20576001600160a01b0385165f908152600360205260409020805460010190555b5f8481526002602052604080822080546001600160a01b0319166001600160a01b0389811691821790925591518793918516917fddf252ad1be2c89b69c2b068fc378daa952ba7f163c4a11628f55a4df523b3ef91a4949350505050565b610b89838383610be2565b610428576001600160a01b038316610bb757604051637e27328960e01b815260048101829052602401610405565b60405163177e802f60e01b81526001600160a01b038316600482015260248101829052604401610405565b5f6001600160a01b03831615801590610c3e5750826001600160a01b0316846001600160a01b03161480610c1b5750610c1b84846105db565b80610c3e57505f828152600460205260409020546001600160a01b038481169116145b949350505050565b6001600160e01b031981168114610642575f80fd5b5f60208284031215610c6b575f80fd5b8135610c7681610c46565b9392505050565b5f81518084525f5b81811015610ca157602081850181015186830182015201610c85565b505f602082860101526020601f19601f83011685010191505092915050565b602081525f610c766020830184610c7d565b5f60208284031215610ce2575f80fd5b5035919050565b80356001600160a01b0381168114610cff575f80fd5b919050565b5f8060408385031215610d15575f80fd5b610d1e83610ce9565b946020939093013593505050565b5f805f60608486031215610d3e575f80fd5b610d4784610ce9565b9250610d5560208501610ce9565b9150604084013590509250925092565b634e487b7160e01b5f52604160045260245ffd5b5f67ffffffffffffffff80841115610d9357610d93610d65565b604051601f8501601f19908116603f01168101908282118183101715610dbb57610dbb610d65565b81604052809350858152868686011115610dd3575f80fd5b858560208301375f602087830101525050509392505050565b5f82601f830112610dfb575f80fd5b610c7683833560208501610d79565b5f805f60608486031215610e1c575f80fd5b610e2584610ce9565b9250602084013567ffffffffffffffff80821115610e41575f80fd5b610e4d87838801610dec565b93506040860135915080821115610e62575f80fd5b50610e6f86828701610dec565b9150509250925092565b5f60208284031215610e89575f80fd5b610c7682610ce9565b5f8060408385031215610ea3575f80fd5b610eac83610ce9565b915060208301358015158114610ec0575f80fd5b809150509250929050565b5f805f8060808587031215610ede575f80fd5b610ee785610ce9565b9350610ef560208601610ce9565b925060408501359150606085013567ffffffffffffffff811115610f17575f80fd5b8501601f81018713610f27575f80fd5b610f3687823560208401610d79565b91505092959194509250565b5f8060408385031215610f53575f80fd5b610f5c83610ce9565b9150610f6a60208401610ce9565b90509250929050565b600181811c90821680610f8757607f821691505b602082108103610fa557634e487b7160e01b5f52602260045260245ffd5b50919050565b5f60018201610fc857634e487b7160e01b5f52601160045260245ffd5b5060010190565b601f82111561042857805f5260205f20601f840160051c81016020851015610ff45750805b601f840160051c820191505b81811015610a85575f8155600101611000565b815167ffffffffffffffff81111561102d5761102d610d65565b6110418161103b8454610f73565b84610fcf565b602080601f831160018114611074575f841561105d5750858301515b5f19600386901b1c1916600185901b178555610a83565b5f85815260208120601f198616915b828110156110a257888601518255948401946001909101908401611083565b50858210156110bf57878501515f19600388901b60f8161c191681555b5050505050600190811b01905550565b6001600160a01b03858116825284166020820152604081018390526080606082018190525f9061110190830184610c7d565b9695505050505050565b5f6020828403121561111b575f80fd5b8151610c7681610c4656fea26469706673582212200828cb65cf258e1c3ec1027c643ef76357ae5cc3cbe2072c8dc22cd404251dbe64736f6c63430008180033",
  "linkReferences": {},
  "deployedLinkReferences": {}
}