{
  "_format": "hh-sol-artifact-1",
  "contractName": "ScoutRenaMarket",
  "sourceName": "contracts/ScoutRenaMarket.sol",
  "abi": [
    {
      "inputs": [
        {
          "internalType": "address",
          "name": "_tokenAddress",
          "type": "address"
        }
      ],
      "stateMutability": "nonpayable",
      "type": "constructor"
    },
    {
      "inputs": [
        {
          "internalType": "address",
          "name": "owner",
          "type": "address"
        }
      ],
      "name": "OwnableInvalidOwner",
      "type": "error"
    },
    {
      "inputs": [
        {
          "internalType": "address",
          "name": "account",
          "type": "address"
        }
      ],
      "name": "OwnableUnauthorizedAccount",
      "type": "error"
    },
    {
      "anonymous": false,
      "inputs": [
        {
          "indexed": true,
          "internalType": "uint256",
          "name": "bidId",
          "type": "uint256"
        },
        {
          "indexed": true,
          "internalType": "address",
          "name": "company",
          "type": "address"
        },
        {
          "indexed": false,
          "internalType": "string",
          "name": "studentId",
          "type": "string"
        },
        {
          "indexed": false,
          "internalType": "uint256",
          "name": "amount",
          "type": "uint256"
        }
      ],
      "name": "BidAccepted",
      "type": "event"
    },
    {
      "anonymous": false,
      "inputs": [
        {
          "indexed": true,
          "internalType": "uint256",
          "name": "bidId",
          "type": "uint256"
        },
        {
          "indexed": true,
          "internalType": "address",
          "name": "company",
          "type": "address"
        },
        {
          "indexed": false,
          "internalType": "string",
          "name": "studentId",
          "type": "string"
        }
      ],
      "name": "BidCanceled",
      "type": "event"
    },
    {
      "anonymous": false,
      "inputs": [
        {
          "indexed": true,
          "internalType": "uint256",
          "name": "bidId",
          "type": "uint256"
        },
        {
          "indexed": true,
          "internalType": "address",
          "name": "company",
          "type": "address"
        },
        {
          "indexed": false,
          "internalType": "string",
          "name": "studentId",
          "type": "string"
        },
        {
          "indexed": false,
          "internalType": "uint256",
          "name": "amount",
          "type": "uint256"
        }
      ],
      "name": "BidPlaced",
      "type": "event"
    },
    {
      "anonymous": false,
      "inputs": [
        {
          "indexed": true,
          "internalType": "uint256",
          "name": "bidId",
          "type": "uint256"
        },
        {
          "indexed": true,
          "internalType": "address",
          "name": "company",
          "type": "address"
        },
        {
          "indexed": false,
          "internalType": "string",
          "name": "studentId",
          "type": "string"
        }
      ],
      "name": "BidRejected",
      "type": "event"
    },
    {
      "anonymous": false,
      "inputs": [
        {
          "indexed": true,
          "internalType": "address",
          "name": "previousOwner",
          "type": "address"
        },
        {
          "indexed": true,
          "internalType": "address",
          "name": "newOwner",
          "type": "address"
        }
      ],
      "name": "OwnershipTransferred",
      "type": "event"
    },
    {
      "inputs": [
        {
          "internalType": "uint256",
          "name": "bidId",
          "type": "uint256"
        },
        {
          "internalType": "address",
          "name": "studentWallet",
          "type": "address"
        }
      ],
      "name": "acceptBid",
      "outputs": [],
      "stateMutability": "nonpayable",
      "type": "function"
    },
    {
      "inputs": [
        {
          "internalType": "uint256",
          "name": "",
          "type": "uint256"
        }
      ],
      "name": "bids",
      "outputs": [
        {
          "internalType": "uint256",
          "name": "id",
          "type": "uint256"
        },
        {
          "internalType": "address",
          "name": "company",
          "type": "address"
        },
        {
          "internalType": "string",
          "name": "studentId",
          "type": "string"
        },
        {
          "internalType": "uint256",
          "name": "amount",
          "type": "uint256"
        },
        {
          "internalType": "bool",
          "name": "active",
          "type": "bool"
        },
        {
          "internalType": "bool",
          "name": "accepted",
          "type": "bool"
        },
        {
          "internalType": "uint256",
          "name": "timestamp",
          "type": "uint256"
        }
      ],
      "stateMutability": "view",
      "type": "function"
    },
    {
      "inputs": [
        {
          "internalType": "uint256",
          "name": "bidId",
          "type": "uint256"
        }
      ],
      "name": "cancelBid",
      "outputs": [],
      "stateMutability": "nonpayable",
      "type": "function"
    },
    {
      "inputs": [
        {
          "internalType": "address",
          "name": "",
          "type": "address"
        },
        {
          "internalType": "uint256",
          "name": "",
          "type": "uint256"
        }
      ],
      "name": "companyBids",
      "outputs": [
        {
          "internalType": "uint256",
          "name": "",
          "type": "uint256"
        }
      ],
      "stateMutability": "view",
      "type": "function"
    },
    {
      "inputs": [
        {
          "internalType": "address",
          "name": "company",
          "type": "address"
        }
      ],
      "name": "getCompanyBids",
      "outputs": [
        {
          "internalType": "uint256[]",
          "name": "",
          "type": "uint256[]"
        }
      ],
      "stateMutability": "view",
      "type": "function"
    },
    {
      "inputs": [
        {
          "internalType": "string",
          "name": "studentId",
          "type": "string"
        }
      ],
      "name": "getStudentBids",
      "outputs": [
        {
          "internalType": "uint256[]",
          "name": "",
          "type": "uint256[]"
        }
      ],
      "stateMutability": "view",
      "type": "function"
    },
    {
      "inputs": [],
      "name": "nextBidId",
      "outputs": [
        {
          "internalType": "uint256",
          "name": "",
          "type": "uint256"
        }
      ],
      "stateMutability": "view",
      "type": "function"
    },
    {
      "inputs": [],
      "name": "owner",
      "outputs": [
        {
          "internalType": "address",
          "name": "",
          "type": "address"
        }
      ],
      "stateMutability": "view",
      "type": "function"
    },
    {
      "inputs": [
        {
          "internalType": "string",
          "name": "studentId",
          "type": "string"
        },
        {
          "internalType": "uint256",
          "name": "amount",
          "type": "uint256"
        }
      ],
      "name": "placeBid",
      "outputs": [
        {
          "internalType": "uint256",
          "name": "",
          "type": "uint256"
        }
      ],
      "stateMutability": "nonpayable",
      "type": "function"
    },
    {
      "inputs": [
        {
          "internalType": "uint256",
          "name": "bidId",
          "type": "uint256"
        }
      ],
      "name": "rejectBid",
      "outputs": [],
      "stateMutability": "nonpayable",
      "type": "function"
    },
    {
      "inputs": [],
      "name": "renounceOwnership",
      "outputs": [],
      "stateMutability": "nonpayable",
      "type": "function"
    },
    {
      "inputs": [
        {
          "internalType": "string",
          "name": "",
          "type": "string"
        },
        {
          "internalType": "uint256",
          "name": "",
          "type": "uint256"
        }
      ],
      "name": "studentBids",
      "outputs": [
        {
          "internalType": "uint256",
          "name": "",
          "type": "uint256"
        }
      ],
      "stateMutability": "view",
      "type": "function"
    },
    {
      "inputs": [],
      "name": "talentToken",
      "outputs": [
        {
          "internalType": "contract IERC20",
          "name": "",
          "type": "address"
        }
      ],
      "stateMutability": "view",
      "type": "function"
    },
    {
      "inputs": [
        {
          "internalType": "address",
          "name": "newOwner",
          "type": "address"
        }
      ],
      "name": "transferOwnership",
      "outputs": [],
      "stateMutability": "nonpayable",
      "type": "function"
    }
  ],
  "bytecode": "0x608060405234801561000f575f80fd5b5060405161132b38038061132b83398101604081905261002e916100d1565b338061005357604051631e4fbdf760e01b81525f600482015260240160405180910390fd5b61005c81610082565b50600180546001600160a01b0319166001600160a01b03929092169190911790556100fe565b5f80546001600160a01b038381166001600160a01b0319831681178455604051919092169283917f8be0079c531659141344cd1fd0a4f28419497f9722a3daafe3b4186f6b6457e09190a35050565b5f602082840312156100e1575f80fd5b81516001600160a01b03811681146100f7575f80fd5b9392505050565b6112208061010b5f395ff3fe608060405234801561000f575f80fd5b50600436106100e5575f3560e01c806383a6c641116100885780639703ef35116100635780639703ef35146101e6578063a7eaa241146101f9578063dc2690491461020c578063f2fde38b14610215575f80fd5b806383a6c641146101b05780638c0e1f05146101c35780638da5cb5b146101d6575f80fd5b80634423c5f1116100c35780634423c5f11461014e5780636e3341b314610174578063715018a6146101875780637a962f401461018f575f80fd5b806302068664146100e957806306e9d6e6146100fe578063383898951461012e575b5f80fd5b6100fc6100f7366004610cc7565b610228565b005b600154610111906001600160a01b031681565b6040516001600160a01b0390911681526020015b60405180910390f35b61014161013c366004610d8e565b6103a1565b6040516101259190610dc8565b61016161015c366004610e0b565b61040f565b6040516101259796959493929190610e6f565b6100fc610182366004610e0b565b6104e3565b6100fc610639565b6101a261019d366004610ebe565b61064c565b604051908152602001610125565b6101416101be366004610f00565b610688565b6101a26101d1366004610f20565b6106ef565b5f546001600160a01b0316610111565b6100fc6101f4366004610e0b565b610708565b6101a2610207366004610ebe565b6108b2565b6101a260025481565b6100fc610223366004610f00565b610bf4565b610230610c31565b5f828152600360205260409020600481015460ff1661026a5760405162461bcd60e51b815260040161026190610f48565b60405180910390fd5b6004808201805461ffff1916610100179055600154600383015460405163a9059cbb60e01b81526001600160a01b039092169263a9059cbb926102c59287929091016001600160a01b03929092168252602082015260400190565b6020604051808303815f875af11580156102e1573d5f803e3d5ffd5b505050506040513d601f19601f820116820180604052508101906103059190610f73565b6103495760405162461bcd60e51b8152602060048201526015602482015274151bdad95b881d1c985b9cd9995c8819985a5b1959605a1b6044820152606401610261565b600181015460038201546040516001600160a01b039092169185917f70d8491aaa1211b22680f95447676024f76328a2048b6654724a2ee091e1797291610394916002870191611043565b60405180910390a3505050565b60606004826040516103b39190611064565b908152604080519182900360209081018320805480830285018301909352828452919083018282801561040357602002820191905f5260205f20905b8154815260200190600101908083116103ef575b50505050509050919050565b60036020525f908152604090208054600182015460028301805492936001600160a01b039092169261044090610f92565b80601f016020809104026020016040519081016040528092919081815260200182805461046c90610f92565b80156104b75780601f1061048e576101008083540402835291602001916104b7565b820191905f5260205f20905b81548152906001019060200180831161049a57829003601f168201915b505050600384015460048501546005909501549394909360ff8083169450610100909204909116915087565b6104eb610c31565b5f818152600360205260409020600481015460ff1661051c5760405162461bcd60e51b815260040161026190610f48565b6004818101805460ff191690556001805490830154600384015460405163a9059cbb60e01b81526001600160a01b03928316948101949094526024840152169063a9059cbb906044016020604051808303815f875af1158015610581573d5f803e3d5ffd5b505050506040513d601f19601f820116820180604052508101906105a59190610f73565b6105e75760405162461bcd60e51b8152602060048201526013602482015272151bdad95b881c99599d5b990819985a5b1959606a1b6044820152606401610261565b60018101546040516001600160a01b039091169083907fce15f82bc67dffbba33d5032ec9d27f71919918d36318904032dc3d4066098649061062d90600286019061107f565b60405180910390a35050565b610641610c31565b61064a5f610c5d565b565b81516020818401810180516004825292820191850191909120919052805482908110610676575f80fd5b905f5260205f20015f91509150505481565b6001600160a01b0381165f9081526005602090815260409182902080548351818402810184019094528084526060939283018282801561040357602002820191905f5260205f20908154815260200190600101908083116103ef5750505050509050919050565b6005602052815f5260405f208181548110610676575f80fd5b5f818152600360205260409020600481015460ff166107395760405162461bcd60e51b815260040161026190610f48565b60018101546001600160a01b031633146107a15760405162461bcd60e51b815260206004820152602360248201527f4f6e6c79207468652062696464696e6720636f6d70616e792063616e2063616e60448201526218d95b60ea1b6064820152608401610261565b6004818101805460ff191690556001805490830154600384015460405163a9059cbb60e01b81526001600160a01b03928316948101949094526024840152169063a9059cbb906044016020604051808303815f875af1158015610806573d5f803e3d5ffd5b505050506040513d601f19601f8201168201806040525081019061082a9190610f73565b61086c5760405162461bcd60e51b8152602060048201526013602482015272151bdad95b881c99599d5b990819985a5b1959606a1b6044820152606401610261565b60018101546040516001600160a01b039091169083907f6e0991b71005b5dd636055fa559af67ef7798bc031ab1227d7696c4c67fe00879061062d90600286019061107f565b5f80821161090c5760405162461bcd60e51b815260206004820152602160248201527f42696420616d6f756e74206d7573742062652067726561746572207468616e206044820152600360fc1b6064820152608401610261565b6001546040516370a0823160e01b815233600482015283916001600160a01b0316906370a0823190602401602060405180830381865afa158015610952573d5f803e3d5ffd5b505050506040513d601f19601f820116820180604052508101906109769190611091565b10156109c45760405162461bcd60e51b815260206004820152601a60248201527f496e73756666696369656e7420746f6b656e2062616c616e63650000000000006044820152606401610261565b6001546040516323b872dd60e01b8152336004820152306024820152604481018490526001600160a01b03909116906323b872dd906064016020604051808303815f875af1158015610a18573d5f803e3d5ffd5b505050506040513d601f19601f82011682018060405250810190610a3c9190610f73565b610a805760405162461bcd60e51b8152602060048201526015602482015274151bdad95b881d1c985b9cd9995c8819985a5b1959605a1b6044820152606401610261565b600280545f9182610a90836110a8565b909155506040805160e081018252828152336020808301918252828401898152606084018990526001608085018190525f60a086018190524260c087015287815260039093529490912083518155915193820180546001600160a01b0319166001600160a01b03909516949094179093559151929350918291906002820190610b199082611118565b506060820151600382015560808201516004808301805460a086015115156101000261ff00199415159490941661ffff19909116179290921790915560c090920151600590910155604051610b6f908790611064565b9081526040805191829003602090810183208054600181810183555f9283528383209091018790553380835260058452938220805491820181558252919020018490559083907f6b2bb881d5dc46b346ff12ca5b8dc9e337a56cf5d6137d55d8317ef2060f9cbc90610be490899089906111d8565b60405180910390a3509392505050565b610bfc610c31565b6001600160a01b038116610c2557604051631e4fbdf760e01b81525f6004820152602401610261565b610c2e81610c5d565b50565b5f546001600160a01b0316331461064a5760405163118cdaa760e01b8152336004820152602401610261565b5f80546001600160a01b038381166001600160a01b0319831681178455604051919092169283917f8be0079c531659141344cd1fd0a4f28419497f9722a3daafe3b4186f6b6457e09190a35050565b80356001600160a01b0381168114610cc2575f80fd5b919050565b5f8060408385031215610cd8575f80fd5b82359150610ce860208401610cac565b90509250929050565b634e487b7160e01b5f52604160045260245ffd5b5f82601f830112610d14575f80fd5b813567ffffffffffffffff80821115610d2f57610d2f610cf1565b604051601f8301601f19908116603f01168101908282118183101715610d5757610d57610cf1565b81604052838152866020858801011115610d6f575f80fd5b836020870160208301375f602085830101528094505050505092915050565b5f60208284031215610d9e575f80fd5b813567ffffffffffffffff811115610db4575f80fd5b610dc084828501610d05565b949350505050565b602080825282518282018190525f9190848201906040850190845b81811015610dff57835183529284019291840191600101610de3565b50909695505050505050565b5f60208284031215610e1b575f80fd5b5035919050565b5f5b83811015610e3c578181015183820152602001610e24565b50505f910152565b5f8151808452610e5b816020860160208601610e22565b601f01601f19169290920160200192915050565b8781526001600160a01b038716602082015260e0604082018190525f90610e9890830188610e44565b606083019690965250921515608084015290151560a083015260c0909101529392505050565b5f8060408385031215610ecf575f80fd5b823567ffffffffffffffff811115610ee5575f80fd5b610ef185828601610d05565b95602094909401359450505050565b5f60208284031215610f10575f80fd5b610f1982610cac565b9392505050565b5f8060408385031215610f31575f80fd5b610f3a83610cac565b946020939093013593505050565b602080825260119082015270426964206973206e6f742061637469766560781b604082015260600190565b5f60208284031215610f83575f80fd5b81518015158114610f19575f80fd5b600181811c90821680610fa657607f821691505b602082108103610fc457634e487b7160e01b5f52602260045260245ffd5b50919050565b5f8154610fd681610f92565b808552602060018381168015610ff3576001811461100d57611038565b60ff1985168884015283151560051b880183019550611038565b865f52825f205f5b858110156110305781548a8201860152908301908401611015565b890184019650505b505050505092915050565b604081525f6110556040830185610fca565b90508260208301529392505050565b5f8251611075818460208701610e22565b9190910192915050565b602081525f610f196020830184610fca565b5f602082840312156110a1575f80fd5b5051919050565b5f600182016110c557634e487b7160e01b5f52601160045260245ffd5b5060010190565b601f82111561111357805f5260205f20601f840160051c810160208510156110f15750805b601f840160051c820191505b81811015611110575f81556001016110fd565b50505b505050565b815167ffffffffffffffff81111561113257611132610cf1565b611146816111408454610f92565b846110cc565b602080601f831160018114611179575f84156111625750858301515b5f19600386901b1c1916600185901b1785556111d0565b5f85815260208120601f198616915b828110156111a757888601518255948401946001909101908401611188565b50858210156111c457878501515f19600388901b60f8161c191681555b505060018460011b0185555b505050505050565b604081525f6110556040830185610e4456fea26469706673582212204d4020410aae6690529cdb97251d3179397258ca608bc43c8f2ef416c206d78764736f6c63430008180033",
  "linkReferences": {},
  "deployedLinkReferences": {}
}